{
  "_format": "hh-sol-artifact-1",
  "contractName": "IDOPool",
  "sourceName": "contracts/IDOPool.sol",
  "abi": [
    {
      "inputs": [
        {
          "internalType": "uint256",
          "name": "_startTime",
          "type": "uint256"
        },
        {
          "internalType": "uint256",
          "name": "_endTime",
          "type": "uint256"
        },
        {
          "internalType": "address",
          "name": "_idoToken",
          "type": "address"
        },
        {
          "internalType": "uint256",
          "name": "_rate",
          "type": "uint256"
        },
        {
          "internalType": "uint256",
          "name": "_softCap",
          "type": "uint256"
        },
        {
          "internalType": "uint256",
          "name": "_hardCap",
          "type": "uint256"
        }
      ],
      "stateMutability": "nonpayable",
      "type": "constructor"
    },
    {
      "anonymous": false,
      "inputs": [
        {
          "indexed": true,
          "internalType": "address",
          "name": "previousOwner",
          "type": "address"
        },
        {
          "indexed": true,
          "internalType": "address",
          "name": "newOwner",
          "type": "address"
        }
      ],
      "name": "OwnershipTransferred",
      "type": "event"
    },
    {
      "inputs": [],
      "name": "DUKE_TIER1_AMOUNT",
      "outputs": [
        {
          "internalType": "uint256",
          "name": "",
          "type": "uint256"
        }
      ],
      "stateMutability": "view",
      "type": "function"
    },
    {
      "inputs": [],
      "name": "DUKE_TIER2_AMOUNT",
      "outputs": [
        {
          "internalType": "uint256",
          "name": "",
          "type": "uint256"
        }
      ],
      "stateMutability": "view",
      "type": "function"
    },
    {
      "inputs": [],
      "name": "DUKE_TIER3_AMOUNT",
      "outputs": [
        {
          "internalType": "uint256",
          "name": "",
          "type": "uint256"
        }
      ],
      "stateMutability": "view",
      "type": "function"
    },
    {
      "inputs": [],
      "name": "DUKE_TIER4_AMOUNT",
      "outputs": [
        {
          "internalType": "uint256",
          "name": "",
          "type": "uint256"
        }
      ],
      "stateMutability": "view",
      "type": "function"
    },
    {
      "inputs": [],
      "name": "FAST_TIER1_AMOUNT",
      "outputs": [
        {
          "internalType": "uint256",
          "name": "",
          "type": "uint256"
        }
      ],
      "stateMutability": "view",
      "type": "function"
    },
    {
      "inputs": [],
      "name": "FAST_TIER2_AMOUNT",
      "outputs": [
        {
          "internalType": "uint256",
          "name": "",
          "type": "uint256"
        }
      ],
      "stateMutability": "view",
      "type": "function"
    },
    {
      "inputs": [],
      "name": "FAST_TIER3_AMOUNT",
      "outputs": [
        {
          "internalType": "uint256",
          "name": "",
          "type": "uint256"
        }
      ],
      "stateMutability": "view",
      "type": "function"
    },
    {
      "inputs": [],
      "name": "FAST_TIER4_AMOUNT",
      "outputs": [
        {
          "internalType": "uint256",
          "name": "",
          "type": "uint256"
        }
      ],
      "stateMutability": "view",
      "type": "function"
    },
    {
      "inputs": [],
      "name": "SAFE_STAKE_PERIOD",
      "outputs": [
        {
          "internalType": "uint256",
          "name": "",
          "type": "uint256"
        }
      ],
      "stateMutability": "view",
      "type": "function"
    },
    {
      "inputs": [],
      "name": "SAFE_UNSTAKE_PERIOD",
      "outputs": [
        {
          "internalType": "uint256",
          "name": "",
          "type": "uint256"
        }
      ],
      "stateMutability": "view",
      "type": "function"
    },
    {
      "inputs": [
        {
          "internalType": "address[]",
          "name": "_whitelist",
          "type": "address[]"
        }
      ],
      "name": "addWhitelists",
      "outputs": [],
      "stateMutability": "nonpayable",
      "type": "function"
    },
    {
      "inputs": [
        {
          "internalType": "uint256",
          "name": "",
          "type": "uint256"
        }
      ],
      "name": "allocPercents",
      "outputs": [
        {
          "internalType": "uint256",
          "name": "",
          "type": "uint256"
        }
      ],
      "stateMutability": "view",
      "type": "function"
    },
    {
      "inputs": [],
      "name": "claimTokens",
      "outputs": [],
      "stateMutability": "nonpayable",
      "type": "function"
    },
    {
      "inputs": [
        {
          "internalType": "address",
          "name": "",
          "type": "address"
        }
      ],
      "name": "contributions",
      "outputs": [
        {
          "internalType": "uint256",
          "name": "",
          "type": "uint256"
        }
      ],
      "stateMutability": "view",
      "type": "function"
    },
    {
      "inputs": [
        {
          "internalType": "address",
          "name": "",
          "type": "address"
        }
      ],
      "name": "dukeStakedAmount",
      "outputs": [
        {
          "internalType": "uint256",
          "name": "",
          "type": "uint256"
        }
      ],
      "stateMutability": "view",
      "type": "function"
    },
    {
      "inputs": [],
      "name": "dukeToken",
      "outputs": [
        {
          "internalType": "contract ERC20",
          "name": "",
          "type": "address"
        }
      ],
      "stateMutability": "view",
      "type": "function"
    },
    {
      "inputs": [],
      "name": "dukeTotalStakedAmount",
      "outputs": [
        {
          "internalType": "uint256",
          "name": "",
          "type": "uint256"
        }
      ],
      "stateMutability": "view",
      "type": "function"
    },
    {
      "inputs": [],
      "name": "dukeTotalStakers",
      "outputs": [
        {
          "internalType": "uint256",
          "name": "",
          "type": "uint256"
        }
      ],
      "stateMutability": "view",
      "type": "function"
    },
    {
      "inputs": [],
      "name": "endTime",
      "outputs": [
        {
          "internalType": "uint256",
          "name": "",
          "type": "uint256"
        }
      ],
      "stateMutability": "view",
      "type": "function"
    },
    {
      "inputs": [
        {
          "internalType": "address",
          "name": "",
          "type": "address"
        }
      ],
      "name": "fastStakedAmount",
      "outputs": [
        {
          "internalType": "uint256",
          "name": "",
          "type": "uint256"
        }
      ],
      "stateMutability": "view",
      "type": "function"
    },
    {
      "inputs": [],
      "name": "fastToken",
      "outputs": [
        {
          "internalType": "contract ERC20",
          "name": "",
          "type": "address"
        }
      ],
      "stateMutability": "view",
      "type": "function"
    },
    {
      "inputs": [],
      "name": "fastTotalStakedAmount",
      "outputs": [
        {
          "internalType": "uint256",
          "name": "",
          "type": "uint256"
        }
      ],
      "stateMutability": "view",
      "type": "function"
    },
    {
      "inputs": [],
      "name": "fastTotalStakers",
      "outputs": [
        {
          "internalType": "uint256",
          "name": "",
          "type": "uint256"
        }
      ],
      "stateMutability": "view",
      "type": "function"
    },
    {
      "inputs": [],
      "name": "hardCap",
      "outputs": [
        {
          "internalType": "uint256",
          "name": "",
          "type": "uint256"
        }
      ],
      "stateMutability": "view",
      "type": "function"
    },
    {
      "inputs": [],
      "name": "idoToken",
      "outputs": [
        {
          "internalType": "contract ERC20",
          "name": "",
          "type": "address"
        }
      ],
      "stateMutability": "view",
      "type": "function"
    },
    {
      "inputs": [],
      "name": "owner",
      "outputs": [
        {
          "internalType": "address",
          "name": "",
          "type": "address"
        }
      ],
      "stateMutability": "view",
      "type": "function"
    },
    {
      "inputs": [
        {
          "internalType": "uint256",
          "name": "_amount",
          "type": "uint256"
        }
      ],
      "name": "purchase",
      "outputs": [],
      "stateMutability": "nonpayable",
      "type": "function"
    },
    {
      "inputs": [],
      "name": "rate",
      "outputs": [
        {
          "internalType": "uint256",
          "name": "",
          "type": "uint256"
        }
      ],
      "stateMutability": "view",
      "type": "function"
    },
    {
      "inputs": [],
      "name": "renounceOwnership",
      "outputs": [],
      "stateMutability": "nonpayable",
      "type": "function"
    },
    {
      "inputs": [
        {
          "internalType": "uint256",
          "name": "value",
          "type": "uint256"
        }
      ],
      "name": "setHardCap",
      "outputs": [],
      "stateMutability": "nonpayable",
      "type": "function"
    },
    {
      "inputs": [
        {
          "internalType": "uint256",
          "name": "newRate",
          "type": "uint256"
        }
      ],
      "name": "setRate",
      "outputs": [],
      "stateMutability": "nonpayable",
      "type": "function"
    },
    {
      "inputs": [
        {
          "internalType": "uint256",
          "name": "value",
          "type": "uint256"
        }
      ],
      "name": "setSoftCap",
      "outputs": [],
      "stateMutability": "nonpayable",
      "type": "function"
    },
    {
      "inputs": [
        {
          "internalType": "uint256[]",
          "name": "_limits",
          "type": "uint256[]"
        }
      ],
      "name": "setTierDukeLimit",
      "outputs": [],
      "stateMutability": "nonpayable",
      "type": "function"
    },
    {
      "inputs": [
        {
          "internalType": "uint256[]",
          "name": "_limits",
          "type": "uint256[]"
        }
      ],
      "name": "setTierFastLimit",
      "outputs": [],
      "stateMutability": "nonpayable",
      "type": "function"
    },
    {
      "inputs": [],
      "name": "softCap",
      "outputs": [
        {
          "internalType": "uint256",
          "name": "",
          "type": "uint256"
        }
      ],
      "stateMutability": "view",
      "type": "function"
    },
    {
      "inputs": [
        {
          "internalType": "uint256",
          "name": "_amount",
          "type": "uint256"
        }
      ],
      "name": "stakeDuke",
      "outputs": [],
      "stateMutability": "nonpayable",
      "type": "function"
    },
    {
      "inputs": [
        {
          "internalType": "uint256",
          "name": "_amount",
          "type": "uint256"
        }
      ],
      "name": "stakeFast",
      "outputs": [],
      "stateMutability": "nonpayable",
      "type": "function"
    },
    {
      "inputs": [],
      "name": "startTime",
      "outputs": [
        {
          "internalType": "uint256",
          "name": "",
          "type": "uint256"
        }
      ],
      "stateMutability": "view",
      "type": "function"
    },
    {
      "inputs": [
        {
          "internalType": "uint256",
          "name": "",
          "type": "uint256"
        }
      ],
      "name": "tierContributions",
      "outputs": [
        {
          "internalType": "uint256",
          "name": "",
          "type": "uint256"
        }
      ],
      "stateMutability": "view",
      "type": "function"
    },
    {
      "inputs": [],
      "name": "totalContributions",
      "outputs": [
        {
          "internalType": "uint256",
          "name": "",
          "type": "uint256"
        }
      ],
      "stateMutability": "view",
      "type": "function"
    },
    {
      "inputs": [
        {
          "internalType": "address",
          "name": "newOwner",
          "type": "address"
        }
      ],
      "name": "transferOwnership",
      "outputs": [],
      "stateMutability": "nonpayable",
      "type": "function"
    },
    {
      "inputs": [
        {
          "internalType": "uint256",
          "name": "_amount",
          "type": "uint256"
        }
      ],
      "name": "unStakeDuke",
      "outputs": [],
      "stateMutability": "nonpayable",
      "type": "function"
    },
    {
      "inputs": [
        {
          "internalType": "uint256",
          "name": "_amount",
          "type": "uint256"
        }
      ],
      "name": "unStakeFast",
      "outputs": [],
      "stateMutability": "nonpayable",
      "type": "function"
    },
    {
      "inputs": [],
      "name": "usdt",
      "outputs": [
        {
          "internalType": "contract ERC20",
          "name": "",
          "type": "address"
        }
      ],
      "stateMutability": "view",
      "type": "function"
    },
    {
      "inputs": [
        {
          "internalType": "address",
          "name": "",
          "type": "address"
        }
      ],
      "name": "userTier",
      "outputs": [
        {
          "internalType": "uint256",
          "name": "",
          "type": "uint256"
        }
      ],
      "stateMutability": "view",
      "type": "function"
    },
    {
      "inputs": [
        {
          "internalType": "address",
          "name": "",
          "type": "address"
        }
      ],
      "name": "whitelist",
      "outputs": [
        {
          "internalType": "bool",
          "name": "",
          "type": "bool"
        }
      ],
      "stateMutability": "view",
      "type": "function"
    },
    {
      "inputs": [],
      "name": "withdraw",
      "outputs": [],
      "stateMutability": "nonpayable",
      "type": "function"
    },
    {
      "inputs": [
        {
          "internalType": "contract ERC20",
          "name": "_token",
          "type": "address"
        },
        {
          "internalType": "uint256",
          "name": "amount",
          "type": "uint256"
        }
      ],
      "name": "withdrawToken",
      "outputs": [],
      "stateMutability": "nonpayable",
      "type": "function"
    },
    {
      "stateMutability": "payable",
      "type": "receive"
    }
  ],
  "bytecode": "0x608060405273b089ebd0670365c26a6ec7b37d81ad8159d9ce23600160006101000a81548173ffffffffffffffffffffffffffffffffffffffff021916908373ffffffffffffffffffffffffffffffffffffffff16021790555073a815e74e00c192e3d9261e486440a1f1ff00a4ef600260006101000a81548173ffffffffffffffffffffffffffffffffffffffff021916908373ffffffffffffffffffffffffffffffffffffffff160217905550732d0b833e218ae62b314d06befac900e477cb2a94600460006101000a81548173ffffffffffffffffffffffffffffffffffffffff021916908373ffffffffffffffffffffffffffffffffffffffff160217905550690a968163f0a57b4000006008556b019d971e4fe8401e7400000060095569152d02c7e14af6800000600a556b033b2e3c9fd0803ce8000000600b55693f870857a3e0e3800000600c556b09b18ab5df7180b6b8000000600d55697f0e10af47c1c7000000600e556b1363156bbee3016d70000000600f556040518060a00160405280600a60ff168152602001600a60ff168152602001600f60ff168152602001601960ff168152602001602860ff168152506010906005620001c8929190620004b5565b5062093a8060255562069780602655348015620001e457600080fd5b50604051620043a8380380620043a883398181016040528101906200020a9190620005c3565b6200022a6200021e620003e960201b60201c565b620003f160201b60201c565b85851180156200023957504285115b6200027b576040517f08c379a00000000000000000000000000000000000000000000000000000000081526004016200027290620006c0565b60405180910390fd5b60008311620002c1576040517f08c379a0000000000000000000000000000000000000000000000000000000008152600401620002b89062000732565b60405180910390fd5b600073ffffffffffffffffffffffffffffffffffffffff168473ffffffffffffffffffffffffffffffffffffffff16141562000334576040517f08c379a00000000000000000000000000000000000000000000000000000000081526004016200032b90620007a4565b60405180910390fd5b80821062000379576040517f08c379a000000000000000000000000000000000000000000000000000000000815260040162000370906200083c565b60405180910390fd5b856023819055508460248190555083600360006101000a81548173ffffffffffffffffffffffffffffffffffffffff021916908373ffffffffffffffffffffffffffffffffffffffff1602179055508260058190555081600781905550806006819055505050505050506200085e565b600033905090565b60008060009054906101000a900473ffffffffffffffffffffffffffffffffffffffff169050816000806101000a81548173ffffffffffffffffffffffffffffffffffffffff021916908373ffffffffffffffffffffffffffffffffffffffff1602179055508173ffffffffffffffffffffffffffffffffffffffff168173ffffffffffffffffffffffffffffffffffffffff167f8be0079c531659141344cd1fd0a4f28419497f9722a3daafe3b4186f6b6457e060405160405180910390a35050565b8260058101928215620004ec579160200282015b82811115620004eb578251829060ff16905591602001919060010190620004c9565b5b509050620004fb9190620004ff565b5090565b5b808211156200051a57600081600090555060010162000500565b5090565b600080fd5b6000819050919050565b620005388162000523565b81146200054457600080fd5b50565b60008151905062000558816200052d565b92915050565b600073ffffffffffffffffffffffffffffffffffffffff82169050919050565b60006200058b826200055e565b9050919050565b6200059d816200057e565b8114620005a957600080fd5b50565b600081519050620005bd8162000592565b92915050565b60008060008060008060c08789031215620005e357620005e26200051e565b5b6000620005f389828a0162000547565b96505060206200060689828a0162000547565b95505060406200061989828a01620005ac565b94505060606200062c89828a0162000547565b93505060806200063f89828a0162000547565b92505060a06200065289828a0162000547565b9150509295509295509295565b600082825260208201905092915050565b7f77726f6e6720656e6474696d6500000000000000000000000000000000000000600082015250565b6000620006a8600d836200065f565b9150620006b58262000670565b602082019050919050565b60006020820190508181036000830152620006db8162000699565b9050919050565b7f7261746520697320300000000000000000000000000000000000000000000000600082015250565b60006200071a6009836200065f565b91506200072782620006e2565b602082019050919050565b600060208201905081810360008301526200074d816200070b565b9050919050565b7f746f6b656e20697320746865207a65726f206164647265737300000000000000600082015250565b60006200078c6019836200065f565b9150620007998262000754565b602082019050919050565b60006020820190508181036000830152620007bf816200077d565b9050919050565b7f536f6674636170206d757374206265206c6f776572207468616e20486172646360008201527f6170000000000000000000000000000000000000000000000000000000000000602082015250565b6000620008246022836200065f565b91506200083182620007c6565b604082019050919050565b60006020820190508181036000830152620008578162000815565b9050919050565b613b3a806200086e6000396000f3fe6080604052600436106102975760003560e01c806382e543601161015a578063b5813586116100c1578063eee323a21161007a578063eee323a2146109dd578063efef39a114610a08578063f2fde38b14610a31578063f962fc4f14610a5a578063f9bf466914610a85578063fb86a40414610ab05761029e565b8063b5813586146108e3578063c8eaf28f1461090c578063cbffd8c114610935578063d18d944b14610960578063d5cf5c7214610989578063d6cd82bc146109b25761029e565b80639b19251a116101135780639b19251a146107d35780639e281a9814610810578063a28833e214610839578063a317892b14610864578063af8f75e11461088d578063afa50e67146108b85761029e565b806382e54360146106d357806386450c48146106fc5780638a17c86d146107275780638da5cb5b14610752578063906a26e01461077d578063954b1471146107a85761029e565b80633ccfd60b116101fe578063705c396d116101b7578063705c396d146105e9578063715018a61461061457806373c1ebc11461062b578063741f671e1461065457806378e979251461067d5780637b834cd4146106a85761029e565b80633ccfd60b146104ed57806342e94c901461050457806348c54b9d14610541578063625df4ca1461055857806363a8ef0d1461058157806366ad6a8a146105be5761029e565b80632c4e722e116102505780632c4e722e146103ed5780632f48ab7d146104185780633197cbb61461044357806334fcf4371461046e57806337c08923146104975780633854187a146104c25761029e565b80630d59e81f146102a35780631c96247b146102ce57806321c7557c146102f9578063252ba8341461033657806325a5163314610373578063280ea160146103b05761029e565b3661029e57005b600080fd5b3480156102af57600080fd5b506102b8610adb565b6040516102c59190612b8a565b60405180910390f35b3480156102da57600080fd5b506102e3610ae1565b6040516102f09190612b8a565b60405180910390f35b34801561030557600080fd5b50610320600480360381019061031b9190612c17565b610ae7565b60405161032d9190612b8a565b60405180910390f35b34801561034257600080fd5b5061035d60048036038101906103589190612c70565b610aff565b60405161036a9190612b8a565b60405180910390f35b34801561037f57600080fd5b5061039a60048036038101906103959190612c17565b610b1a565b6040516103a79190612b8a565b60405180910390f35b3480156103bc57600080fd5b506103d760048036038101906103d29190612c70565b610b32565b6040516103e49190612b8a565b60405180910390f35b3480156103f957600080fd5b50610402610b4d565b60405161040f9190612b8a565b60405180910390f35b34801561042457600080fd5b5061042d610b53565b60405161043a9190612cfc565b60405180910390f35b34801561044f57600080fd5b50610458610b79565b6040516104659190612b8a565b60405180910390f35b34801561047a57600080fd5b5061049560048036038101906104909190612c70565b610b7f565b005b3480156104a357600080fd5b506104ac610c72565b6040516104b99190612b8a565b60405180910390f35b3480156104ce57600080fd5b506104d7610c78565b6040516104e49190612b8a565b60405180910390f35b3480156104f957600080fd5b50610502610c7e565b005b34801561051057600080fd5b5061052b60048036038101906105269190612c17565b610db0565b6040516105389190612b8a565b60405180910390f35b34801561054d57600080fd5b50610556610dc8565b005b34801561056457600080fd5b5061057f600480360381019061057a9190612c70565b610f79565b005b34801561058d57600080fd5b506105a860048036038101906105a39190612c17565b611158565b6040516105b59190612b8a565b60405180910390f35b3480156105ca57600080fd5b506105d3611170565b6040516105e09190612b8a565b60405180910390f35b3480156105f557600080fd5b506105fe611176565b60405161060b9190612b8a565b60405180910390f35b34801561062057600080fd5b5061062961117c565b005b34801561063757600080fd5b50610652600480360381019061064d9190612e70565b611204565b005b34801561066057600080fd5b5061067b60048036038101906106769190612c70565b61130b565b005b34801561068957600080fd5b5061069261156a565b60405161069f9190612b8a565b60405180910390f35b3480156106b457600080fd5b506106bd611570565b6040516106ca9190612b8a565b60405180910390f35b3480156106df57600080fd5b506106fa60048036038101906106f59190612e70565b611576565b005b34801561070857600080fd5b5061071161167d565b60405161071e9190612b8a565b60405180910390f35b34801561073357600080fd5b5061073c611683565b6040516107499190612b8a565b60405180910390f35b34801561075e57600080fd5b50610767611689565b6040516107749190612ec8565b60405180910390f35b34801561078957600080fd5b506107926116b2565b60405161079f9190612b8a565b60405180910390f35b3480156107b457600080fd5b506107bd6116b8565b6040516107ca9190612b8a565b60405180910390f35b3480156107df57600080fd5b506107fa60048036038101906107f59190612c17565b6116be565b6040516108079190612efe565b60405180910390f35b34801561081c57600080fd5b5061083760048036038101906108329190612f57565b6116de565b005b34801561084557600080fd5b5061084e611859565b60405161085b9190612b8a565b60405180910390f35b34801561087057600080fd5b5061088b60048036038101906108869190612c70565b61185f565b005b34801561089957600080fd5b506108a2611abe565b6040516108af9190612b8a565b60405180910390f35b3480156108c457600080fd5b506108cd611ac4565b6040516108da9190612b8a565b60405180910390f35b3480156108ef57600080fd5b5061090a60048036038101906109059190612c70565b611aca565b005b34801561091857600080fd5b50610933600480360381019061092e919061305a565b611ca9565b005b34801561094157600080fd5b5061094a611dba565b6040516109579190612b8a565b60405180910390f35b34801561096c57600080fd5b5061098760048036038101906109829190612c70565b611dc0565b005b34801561099557600080fd5b506109b060048036038101906109ab9190612c70565b611e46565b005b3480156109be57600080fd5b506109c7611ecc565b6040516109d49190612cfc565b60405180910390f35b3480156109e957600080fd5b506109f2611ef2565b6040516109ff9190612b8a565b60405180910390f35b348015610a1457600080fd5b50610a2f6004803603810190610a2a9190612c70565b611ef8565b005b348015610a3d57600080fd5b50610a586004803603810190610a539190612c17565b612377565b005b348015610a6657600080fd5b50610a6f61246f565b604051610a7c9190612cfc565b60405180910390f35b348015610a9157600080fd5b50610a9a612495565b604051610aa79190612cfc565b60405180910390f35b348015610abc57600080fd5b50610ac56124bb565b604051610ad29190612b8a565b60405180910390f35b600a5481565b60085481565b601b6020528060005260406000206000915090505481565b60158160058110610b0f57600080fd5b016000915090505481565b601c6020528060005260406000206000915090505481565b60108160058110610b4257600080fd5b016000915090505481565b60055481565b600460009054906101000a900473ffffffffffffffffffffffffffffffffffffffff1681565b60245481565b610b876124c1565b73ffffffffffffffffffffffffffffffffffffffff16610ba5611689565b73ffffffffffffffffffffffffffffffffffffffff1614610bfb576040517f08c379a0000000000000000000000000000000000000000000000000000000008152600401610bf290613100565b60405180910390fd5b600654610c066124c9565b101580610c29575060245442118015610c285750600754610c256124c9565b10155b5b610c68576040517f08c379a0000000000000000000000000000000000000000000000000000000008152600401610c5f9061316c565b60405180910390fd5b8060058190555050565b60225481565b600c5481565b610c866124c1565b73ffffffffffffffffffffffffffffffffffffffff16610ca4611689565b73ffffffffffffffffffffffffffffffffffffffff1614610cfa576040517f08c379a0000000000000000000000000000000000000000000000000000000008152600401610cf190613100565b60405180910390fd5b600654610d056124c9565b101580610d28575060245442118015610d275750600754610d246124c9565b10155b5b610d67576040517f08c379a0000000000000000000000000000000000000000000000000000000008152600401610d5e9061316c565b60405180910390fd5b3373ffffffffffffffffffffffffffffffffffffffff166108fc479081150290604051600060405180830381858888f19350505050158015610dad573d6000803e3d6000fd5b50565b601a6020528060005260406000206000915090505481565b600654610dd36124c9565b101580610df6575060245442118015610df55750600754610df26124c9565b10155b5b610e35576040517f08c379a0000000000000000000000000000000000000000000000000000000008152600401610e2c9061316c565b60405180910390fd5b6000610e7f601a60003373ffffffffffffffffffffffffffffffffffffffff1673ffffffffffffffffffffffffffffffffffffffff1681526020019081526020016000205461257b565b90506000601a60003373ffffffffffffffffffffffffffffffffffffffff1673ffffffffffffffffffffffffffffffffffffffff16815260200190815260200160002081905550600360009054906101000a900473ffffffffffffffffffffffffffffffffffffffff1673ffffffffffffffffffffffffffffffffffffffff1663a9059cbb33836040518363ffffffff1660e01b8152600401610f2392919061318c565b602060405180830381600087803b158015610f3d57600080fd5b505af1158015610f51573d6000803e3d6000fd5b505050506040513d601f19601f82011682018060405250810190610f7591906131e1565b5050565b602554602354610f89919061323d565b421115610fcb576040517f08c379a0000000000000000000000000000000000000000000000000000000008152600401610fc2906132bd565b60405180910390fd5b600160009054906101000a900473ffffffffffffffffffffffffffffffffffffffff1673ffffffffffffffffffffffffffffffffffffffff166323b872dd3330846040518463ffffffff1660e01b815260040161102a939291906132dd565b602060405180830381600087803b15801561104457600080fd5b505af1158015611058573d6000803e3d6000fd5b505050506040513d601f19601f8201168201806040525081019061107c91906131e1565b5080601d600082825461108f9190613314565b925050819055506000601c60003373ffffffffffffffffffffffffffffffffffffffff1673ffffffffffffffffffffffffffffffffffffffff1681526020019081526020016000205414156110f757601e60008154809291906110f19061336a565b91905055505b80601c60003373ffffffffffffffffffffffffffffffffffffffff1673ffffffffffffffffffffffffffffffffffffffff16815260200190815260200160002060008282546111469190613314565b925050819055506111556126f5565b50565b601f6020528060005260406000206000915090505481565b60095481565b601e5481565b6111846124c1565b73ffffffffffffffffffffffffffffffffffffffff166111a2611689565b73ffffffffffffffffffffffffffffffffffffffff16146111f8576040517f08c379a00000000000000000000000000000000000000000000000000000000081526004016111ef90613100565b60405180910390fd5b61120260006128d1565b565b61120c6124c1565b73ffffffffffffffffffffffffffffffffffffffff1661122a611689565b73ffffffffffffffffffffffffffffffffffffffff1614611280576040517f08c379a000000000000000000000000000000000000000000000000000000000815260040161127790613100565b60405180910390fd5b80600081518110611294576112936133b3565b5b6020026020010151600881905550806001815181106112b6576112b56133b3565b5b6020026020010151600a81905550806002815181106112d8576112d76133b3565b5b6020026020010151600c81905550806003815181106112fa576112f96133b3565b5b6020026020010151600e8190555050565b60265460245461131b9190613314565b42101561135d576040517f08c379a00000000000000000000000000000000000000000000000000000000081526004016113549061342e565b60405180910390fd5b80601c60003373ffffffffffffffffffffffffffffffffffffffff1673ffffffffffffffffffffffffffffffffffffffff1681526020019081526020016000205410156113df576040517f08c379a00000000000000000000000000000000000000000000000000000000081526004016113d69061349a565b60405180910390fd5b80601d60008282546113f1919061323d565b9250508190555080601c60003373ffffffffffffffffffffffffffffffffffffffff1673ffffffffffffffffffffffffffffffffffffffff1681526020019081526020016000206000828254611447919061323d565b925050819055506000601c60003373ffffffffffffffffffffffffffffffffffffffff1673ffffffffffffffffffffffffffffffffffffffff1681526020019081526020016000205414156114af57601e60008154809291906114a9906134ba565b91905055505b600160009054906101000a900473ffffffffffffffffffffffffffffffffffffffff1673ffffffffffffffffffffffffffffffffffffffff1663a9059cbb33836040518363ffffffff1660e01b815260040161150c92919061318c565b602060405180830381600087803b15801561152657600080fd5b505af115801561153a573d6000803e3d6000fd5b505050506040513d601f19601f8201168201806040525081019061155e91906131e1565b506115676126f5565b50565b60235481565b60205481565b61157e6124c1565b73ffffffffffffffffffffffffffffffffffffffff1661159c611689565b73ffffffffffffffffffffffffffffffffffffffff16146115f2576040517f08c379a00000000000000000000000000000000000000000000000000000000081526004016115e990613100565b60405180910390fd5b80600081518110611606576116056133b3565b5b602002602001015160098190555080600181518110611628576116276133b3565b5b6020026020010151600b819055508060028151811061164a576116496133b3565b5b6020026020010151600d819055508060038151811061166c5761166b6133b3565b5b6020026020010151600f8190555050565b600f5481565b601d5481565b60008060009054906101000a900473ffffffffffffffffffffffffffffffffffffffff16905090565b60075481565b60215481565b60276020528060005260406000206000915054906101000a900460ff1681565b6116e66124c1565b73ffffffffffffffffffffffffffffffffffffffff16611704611689565b73ffffffffffffffffffffffffffffffffffffffff161461175a576040517f08c379a000000000000000000000000000000000000000000000000000000000815260040161175190613100565b60405180910390fd5b6006546117656124c9565b10158061178857506024544211801561178757506007546117846124c9565b10155b5b6117c7576040517f08c379a00000000000000000000000000000000000000000000000000000000081526004016117be9061316c565b60405180910390fd5b8173ffffffffffffffffffffffffffffffffffffffff1663a9059cbb33836040518363ffffffff1660e01b815260040161180292919061318c565b602060405180830381600087803b15801561181c57600080fd5b505af1158015611830573d6000803e3d6000fd5b505050506040513d601f19601f8201168201806040525081019061185491906131e1565b505050565b600d5481565b60265460245461186f9190613314565b4210156118b1576040517f08c379a00000000000000000000000000000000000000000000000000000000081526004016118a89061342e565b60405180910390fd5b80601f60003373ffffffffffffffffffffffffffffffffffffffff1673ffffffffffffffffffffffffffffffffffffffff168152602001908152602001600020541015611933576040517f08c379a000000000000000000000000000000000000000000000000000000000815260040161192a9061349a565b60405180910390fd5b8060206000828254611945919061323d565b9250508190555080601f60003373ffffffffffffffffffffffffffffffffffffffff1673ffffffffffffffffffffffffffffffffffffffff168152602001908152602001600020600082825461199b919061323d565b925050819055506000601f60003373ffffffffffffffffffffffffffffffffffffffff1673ffffffffffffffffffffffffffffffffffffffff168152602001908152602001600020541415611a0357602160008154809291906119fd906134ba565b91905055505b600260009054906101000a900473ffffffffffffffffffffffffffffffffffffffff1673ffffffffffffffffffffffffffffffffffffffff1663a9059cbb33836040518363ffffffff1660e01b8152600401611a6092919061318c565b602060405180830381600087803b158015611a7a57600080fd5b505af1158015611a8e573d6000803e3d6000fd5b505050506040513d601f19601f82011682018060405250810190611ab291906131e1565b50611abb612995565b50565b60255481565b600e5481565b602554602354611ada919061323d565b421115611b1c576040517f08c379a0000000000000000000000000000000000000000000000000000000008152600401611b13906132bd565b60405180910390fd5b600260009054906101000a900473ffffffffffffffffffffffffffffffffffffffff1673ffffffffffffffffffffffffffffffffffffffff166323b872dd3330846040518463ffffffff1660e01b8152600401611b7b939291906132dd565b602060405180830381600087803b158015611b9557600080fd5b505af1158015611ba9573d6000803e3d6000fd5b505050506040513d601f19601f82011682018060405250810190611bcd91906131e1565b508060206000828254611be09190613314565b925050819055506000601f60003373ffffffffffffffffffffffffffffffffffffffff1673ffffffffffffffffffffffffffffffffffffffff168152602001908152602001600020541415611c485760216000815480929190611c429061336a565b91905055505b80601f60003373ffffffffffffffffffffffffffffffffffffffff1673ffffffffffffffffffffffffffffffffffffffff1681526020019081526020016000206000828254611c979190613314565b92505081905550611ca6612995565b50565b611cb16124c1565b73ffffffffffffffffffffffffffffffffffffffff16611ccf611689565b73ffffffffffffffffffffffffffffffffffffffff1614611d25576040517f08c379a0000000000000000000000000000000000000000000000000000000008152600401611d1c90613100565b60405180910390fd5b60005b8151811015611db657600160276000848481518110611d4a57611d496133b3565b5b602002602001015173ffffffffffffffffffffffffffffffffffffffff1673ffffffffffffffffffffffffffffffffffffffff16815260200190815260200160002060006101000a81548160ff0219169083151502179055508080611dae9061336a565b915050611d28565b5050565b60265481565b611dc86124c1565b73ffffffffffffffffffffffffffffffffffffffff16611de6611689565b73ffffffffffffffffffffffffffffffffffffffff1614611e3c576040517f08c379a0000000000000000000000000000000000000000000000000000000008152600401611e3390613100565b60405180910390fd5b8060068190555050565b611e4e6124c1565b73ffffffffffffffffffffffffffffffffffffffff16611e6c611689565b73ffffffffffffffffffffffffffffffffffffffff1614611ec2576040517f08c379a0000000000000000000000000000000000000000000000000000000008152600401611eb990613100565b60405180910390fd5b8060078190555050565b600360009054906101000a900473ffffffffffffffffffffffffffffffffffffffff1681565b600b5481565b6023544210158015611f0c57506024544211155b611f4b576040517f08c379a0000000000000000000000000000000000000000000000000000000008152600401611f4290613530565b60405180910390fd5b600654611f566124c9565b10611f96576040517f08c379a0000000000000000000000000000000000000000000000000000000008152600401611f8d906135c2565b60405180910390fd5b60003390506000601b60008373ffffffffffffffffffffffffffffffffffffffff1673ffffffffffffffffffffffffffffffffffffffff1681526020019081526020016000205414156120775760011515602760008373ffffffffffffffffffffffffffffffffffffffff1673ffffffffffffffffffffffffffffffffffffffff16815260200190815260200160002060009054906101000a900460ff16151514612076576040517f08c379a000000000000000000000000000000000000000000000000000000000815260040161206d9061362e565b60405180910390fd5b5b60008214156120bb576040517f08c379a00000000000000000000000000000000000000000000000000000000081526004016120b29061369a565b60405180910390fd5b6006546120c66124c9565b836120d19190613314565b1115612112576040517f08c379a000000000000000000000000000000000000000000000000000000000815260040161210990613706565b60405180910390fd5b6000601b60008373ffffffffffffffffffffffffffffffffffffffff1673ffffffffffffffffffffffffffffffffffffffff168152602001908152602001600020549050600060646010836005811061216e5761216d6133b3565b5b015460065461217d9190613726565b61218791906137af565b9050806015836005811061219e5761219d6133b3565b5b0154856121ab9190613314565b11156121ec576040517f08c379a00000000000000000000000000000000000000000000000000000000081526004016121e39061382c565b60405180910390fd5b600460009054906101000a900473ffffffffffffffffffffffffffffffffffffffff1673ffffffffffffffffffffffffffffffffffffffff166323b872dd8430876040518463ffffffff1660e01b815260040161224b939291906132dd565b602060405180830381600087803b15801561226557600080fd5b505af1158015612279573d6000803e3d6000fd5b505050506040513d601f19601f8201168201806040525081019061229d91906131e1565b5083602260008282546122b09190613314565b9250508190555083601a60008573ffffffffffffffffffffffffffffffffffffffff1673ffffffffffffffffffffffffffffffffffffffff168152602001908152602001600020546123029190613314565b601a60008573ffffffffffffffffffffffffffffffffffffffff1673ffffffffffffffffffffffffffffffffffffffff16815260200190815260200160002081905550836015836005811061235a576123596133b3565b5b01600082825461236a9190613314565b9250508190555050505050565b61237f6124c1565b73ffffffffffffffffffffffffffffffffffffffff1661239d611689565b73ffffffffffffffffffffffffffffffffffffffff16146123f3576040517f08c379a00000000000000000000000000000000000000000000000000000000081526004016123ea90613100565b60405180910390fd5b600073ffffffffffffffffffffffffffffffffffffffff168173ffffffffffffffffffffffffffffffffffffffff161415612463576040517f08c379a000000000000000000000000000000000000000000000000000000000815260040161245a906138be565b60405180910390fd5b61246c816128d1565b50565b600160009054906101000a900473ffffffffffffffffffffffffffffffffffffffff1681565b600260009054906101000a900473ffffffffffffffffffffffffffffffffffffffff1681565b60065481565b600033905090565b6000600460009054906101000a900473ffffffffffffffffffffffffffffffffffffffff1673ffffffffffffffffffffffffffffffffffffffff166370a08231306040518263ffffffff1660e01b81526004016125269190612ec8565b60206040518083038186803b15801561253e57600080fd5b505afa158015612552573d6000803e3d6000fd5b505050506040513d601f19601f8201168201806040525081019061257691906138f3565b905090565b6000600360009054906101000a900473ffffffffffffffffffffffffffffffffffffffff1673ffffffffffffffffffffffffffffffffffffffff1663313ce5676040518163ffffffff1660e01b815260040160206040518083038186803b1580156125e557600080fd5b505afa1580156125f9573d6000803e3d6000fd5b505050506040513d601f19601f8201168201806040525081019061261d9190613959565b60ff16600554600460009054906101000a900473ffffffffffffffffffffffffffffffffffffffff1673ffffffffffffffffffffffffffffffffffffffff1663313ce5676040518163ffffffff1660e01b815260040160206040518083038186803b15801561268b57600080fd5b505afa15801561269f573d6000803e3d6000fd5b505050506040513d601f19601f820116820180604052508101906126c39190613959565b600a6126cf9190613ab9565b846126da91906137af565b6126e49190613726565b6126ee9190613726565b9050919050565b6000601c60003373ffffffffffffffffffffffffffffffffffffffff1673ffffffffffffffffffffffffffffffffffffffff168152602001908152602001600020549050600e54811061278c576004601b60003373ffffffffffffffffffffffffffffffffffffffff1673ffffffffffffffffffffffffffffffffffffffff168152602001908152602001600020819055506128ce565b600c5481106127df576003601b60003373ffffffffffffffffffffffffffffffffffffffff1673ffffffffffffffffffffffffffffffffffffffff168152602001908152602001600020819055506128cd565b600a548110612832576002601b60003373ffffffffffffffffffffffffffffffffffffffff1673ffffffffffffffffffffffffffffffffffffffff168152602001908152602001600020819055506128cc565b6008548110612885576001601b60003373ffffffffffffffffffffffffffffffffffffffff1673ffffffffffffffffffffffffffffffffffffffff168152602001908152602001600020819055506128cb565b6000601b60003373ffffffffffffffffffffffffffffffffffffffff1673ffffffffffffffffffffffffffffffffffffffff168152602001908152602001600020819055505b5b5b5b50565b60008060009054906101000a900473ffffffffffffffffffffffffffffffffffffffff169050816000806101000a81548173ffffffffffffffffffffffffffffffffffffffff021916908373ffffffffffffffffffffffffffffffffffffffff1602179055508173ffffffffffffffffffffffffffffffffffffffff168173ffffffffffffffffffffffffffffffffffffffff167f8be0079c531659141344cd1fd0a4f28419497f9722a3daafe3b4186f6b6457e060405160405180910390a35050565b6000601f60003373ffffffffffffffffffffffffffffffffffffffff1673ffffffffffffffffffffffffffffffffffffffff168152602001908152602001600020549050600f548110612a2c576004601b60003373ffffffffffffffffffffffffffffffffffffffff1673ffffffffffffffffffffffffffffffffffffffff16815260200190815260200160002081905550612b6e565b600d548110612a7f576003601b60003373ffffffffffffffffffffffffffffffffffffffff1673ffffffffffffffffffffffffffffffffffffffff16815260200190815260200160002081905550612b6d565b600b548110612ad2576002601b60003373ffffffffffffffffffffffffffffffffffffffff1673ffffffffffffffffffffffffffffffffffffffff16815260200190815260200160002081905550612b6c565b6009548110612b25576001601b60003373ffffffffffffffffffffffffffffffffffffffff1673ffffffffffffffffffffffffffffffffffffffff16815260200190815260200160002081905550612b6b565b6000601b60003373ffffffffffffffffffffffffffffffffffffffff1673ffffffffffffffffffffffffffffffffffffffff168152602001908152602001600020819055505b5b5b5b50565b6000819050919050565b612b8481612b71565b82525050565b6000602082019050612b9f6000830184612b7b565b92915050565b6000604051905090565b600080fd5b600080fd5b600073ffffffffffffffffffffffffffffffffffffffff82169050919050565b6000612be482612bb9565b9050919050565b612bf481612bd9565b8114612bff57600080fd5b50565b600081359050612c1181612beb565b92915050565b600060208284031215612c2d57612c2c612baf565b5b6000612c3b84828501612c02565b91505092915050565b612c4d81612b71565b8114612c5857600080fd5b50565b600081359050612c6a81612c44565b92915050565b600060208284031215612c8657612c85612baf565b5b6000612c9484828501612c5b565b91505092915050565b6000819050919050565b6000612cc2612cbd612cb884612bb9565b612c9d565b612bb9565b9050919050565b6000612cd482612ca7565b9050919050565b6000612ce682612cc9565b9050919050565b612cf681612cdb565b82525050565b6000602082019050612d116000830184612ced565b92915050565b600080fd5b6000601f19601f8301169050919050565b7f4e487b7100000000000000000000000000000000000000000000000000000000600052604160045260246000fd5b612d6582612d1c565b810181811067ffffffffffffffff82111715612d8457612d83612d2d565b5b80604052505050565b6000612d97612ba5565b9050612da38282612d5c565b919050565b600067ffffffffffffffff821115612dc357612dc2612d2d565b5b602082029050602081019050919050565b600080fd5b6000612dec612de784612da8565b612d8d565b90508083825260208201905060208402830185811115612e0f57612e0e612dd4565b5b835b81811015612e385780612e248882612c5b565b845260208401935050602081019050612e11565b5050509392505050565b600082601f830112612e5757612e56612d17565b5b8135612e67848260208601612dd9565b91505092915050565b600060208284031215612e8657612e85612baf565b5b600082013567ffffffffffffffff811115612ea457612ea3612bb4565b5b612eb084828501612e42565b91505092915050565b612ec281612bd9565b82525050565b6000602082019050612edd6000830184612eb9565b92915050565b60008115159050919050565b612ef881612ee3565b82525050565b6000602082019050612f136000830184612eef565b92915050565b6000612f2482612bd9565b9050919050565b612f3481612f19565b8114612f3f57600080fd5b50565b600081359050612f5181612f2b565b92915050565b60008060408385031215612f6e57612f6d612baf565b5b6000612f7c85828601612f42565b9250506020612f8d85828601612c5b565b9150509250929050565b600067ffffffffffffffff821115612fb257612fb1612d2d565b5b602082029050602081019050919050565b6000612fd6612fd184612f97565b612d8d565b90508083825260208201905060208402830185811115612ff957612ff8612dd4565b5b835b81811015613022578061300e8882612c02565b845260208401935050602081019050612ffb565b5050509392505050565b600082601f83011261304157613040612d17565b5b8135613051848260208601612fc3565b91505092915050565b6000602082840312156130705761306f612baf565b5b600082013567ffffffffffffffff81111561308e5761308d612bb4565b5b61309a8482850161302c565b91505092915050565b600082825260208201905092915050565b7f4f776e61626c653a2063616c6c6572206973206e6f7420746865206f776e6572600082015250565b60006130ea6020836130a3565b91506130f5826130b4565b602082019050919050565b60006020820190508181036000830152613119816130dd565b9050919050565b7f50726573616c652073686f756c64206e6f742062652061637469766500000000600082015250565b6000613156601c836130a3565b915061316182613120565b602082019050919050565b6000602082019050818103600083015261318581613149565b9050919050565b60006040820190506131a16000830185612eb9565b6131ae6020830184612b7b565b9392505050565b6131be81612ee3565b81146131c957600080fd5b50565b6000815190506131db816131b5565b92915050565b6000602082840312156131f7576131f6612baf565b5b6000613205848285016131cc565b91505092915050565b7f4e487b7100000000000000000000000000000000000000000000000000000000600052601160045260246000fd5b600061324882612b71565b915061325383612b71565b9250828210156132665761326561320e565b5b828203905092915050565b7f4e6f74205374616b696e6720506572696f640000000000000000000000000000600082015250565b60006132a76012836130a3565b91506132b282613271565b602082019050919050565b600060208201905081810360008301526132d68161329a565b9050919050565b60006060820190506132f26000830186612eb9565b6132ff6020830185612eb9565b61330c6040830184612b7b565b949350505050565b600061331f82612b71565b915061332a83612b71565b9250827fffffffffffffffffffffffffffffffffffffffffffffffffffffffffffffffff0382111561335f5761335e61320e565b5b828201905092915050565b600061337582612b71565b91507fffffffffffffffffffffffffffffffffffffffffffffffffffffffffffffffff8214156133a8576133a761320e565b5b600182019050919050565b7f4e487b7100000000000000000000000000000000000000000000000000000000600052603260045260246000fd5b7f4e6f7420556e7374616b696e6720506572696f64000000000000000000000000600082015250565b60006134186014836130a3565b9150613423826133e2565b602082019050919050565b600060208201905081810360008301526134478161340b565b9050919050565b7f496e73756666696369656e7420746f6b656e2062616c616e6365000000000000600082015250565b6000613484601a836130a3565b915061348f8261344e565b602082019050919050565b600060208201905081810360008301526134b381613477565b9050919050565b60006134c582612b71565b915060008214156134d9576134d861320e565b5b600182039050919050565b7f50726573616c65206d7573742062652061637469766500000000000000000000600082015250565b600061351a6016836130a3565b9150613525826134e4565b602082019050919050565b600060208201905081810360008301526135498161350d565b9050919050565b7f436f6e747269627574696f6e20416d6f756e74206e65656420746f206265207360008201527f6d616c6c6572207468616e204861726443617000000000000000000000000000602082015250565b60006135ac6033836130a3565b91506135b782613550565b604082019050919050565b600060208201905081810360008301526135db8161359f565b9050919050565b7f6e6f742077686974656c69737465640000000000000000000000000000000000600082015250565b6000613618600f836130a3565b9150613623826135e2565b602082019050919050565b600060208201905081810360008301526136478161360b565b9050919050565b7f50726573616c653a20776569416d6f756e742069732030000000000000000000600082015250565b60006136846017836130a3565b915061368f8261364e565b602082019050919050565b600060208201905081810360008301526136b381613677565b9050919050565b7f4861726420436170207265616368656400000000000000000000000000000000600082015250565b60006136f06010836130a3565b91506136fb826136ba565b602082019050919050565b6000602082019050818103600083015261371f816136e3565b9050919050565b600061373182612b71565b915061373c83612b71565b9250817fffffffffffffffffffffffffffffffffffffffffffffffffffffffffffffffff04831182151516156137755761377461320e565b5b828202905092915050565b7f4e487b7100000000000000000000000000000000000000000000000000000000600052601260045260246000fd5b60006137ba82612b71565b91506137c583612b71565b9250826137d5576137d4613780565b5b828204905092915050565b7f43616e6e6f74206578636565642074696572206c696d69740000000000000000600082015250565b60006138166018836130a3565b9150613821826137e0565b602082019050919050565b6000602082019050818103600083015261384581613809565b9050919050565b7f4f776e61626c653a206e6577206f776e657220697320746865207a65726f206160008201527f6464726573730000000000000000000000000000000000000000000000000000602082015250565b60006138a86026836130a3565b91506138b38261384c565b604082019050919050565b600060208201905081810360008301526138d78161389b565b9050919050565b6000815190506138ed81612c44565b92915050565b60006020828403121561390957613908612baf565b5b6000613917848285016138de565b91505092915050565b600060ff82169050919050565b61393681613920565b811461394157600080fd5b50565b6000815190506139538161392d565b92915050565b60006020828403121561396f5761396e612baf565b5b600061397d84828501613944565b91505092915050565b60008160011c9050919050565b6000808291508390505b60018511156139dd578086048111156139b9576139b861320e565b5b60018516156139c85780820291505b80810290506139d685613986565b945061399d565b94509492505050565b6000826139f65760019050613ab2565b81613a045760009050613ab2565b8160018114613a1a5760028114613a2457613a53565b6001915050613ab2565b60ff841115613a3657613a3561320e565b5b8360020a915084821115613a4d57613a4c61320e565b5b50613ab2565b5060208310610133831016604e8410600b8410161715613a885782820a905083811115613a8357613a8261320e565b5b613ab2565b613a958484846001613993565b92509050818404811115613aac57613aab61320e565b5b81810290505b9392505050565b6000613ac482612b71565b9150613acf83613920565b9250613afc7fffffffffffffffffffffffffffffffffffffffffffffffffffffffffffffffff84846139e6565b90509291505056fea2646970667358221220bdc96db5c23290898a4d04131bd792979bb8c69ae6fa9b85950d62c06fb5331c64736f6c63430008090033",
  "linkReferences": {},
  "deployedLinkReferences": {}
}